{
  "transactions": [
    {
      "hash": "0xf91e633b2507f344428173fa71e16529625b09fec558d3a1ee154cf68372138f",
      "transactionType": "CREATE",
      "contractName": "RouterV2",
      "contractAddress": "0x92403851543c49D4b84138eAbb23F3A5da73d7d3",
      "function": null,
      "arguments": null,
      "transaction": {
        "type": "0x02",
        "from": "0x153d2a196dc8f1f6b9aa87241864b3e4d4fec170",
        "gas": "0x1d1937",
        "value": "0x0",
        "data": "0x608060405234801561001057600080fd5b50600160005561195d806100256000396000f3fe60806040526004361061007b5760003560e01c806369e14ec81161004e57806369e14ec8146100e8578063bc053cf114610137578063dcc1dc271461014a578063eddc691b1461017a57600080fd5b8063088363c7146100805780630b4f3c46146100955780633c6fa38f146100a85780636546f7fb146100c8575b600080fd5b61009361008e3660046112e1565b61018d565b005b6100936100a336600461134d565b6105a2565b3480156100b457600080fd5b506100936100c3366004611417565b610806565b3480156100d457600080fd5b506100936100e3366004611417565b610a29565b3480156100f457600080fd5b5061012361010336600461150d565b600260209081526000928352604080842090915290825290205460ff1681565b604051901515815260200160405180910390f35b61009361014536600461134d565b610c07565b34801561015657600080fd5b50610123610165366004611540565b60016020526000908152604090205460ff1681565b6100936101883660046112e1565b610ea0565b610195611222565b338382146101cf576040517fa755bb2e00000000000000000000000000000000000000000000000000000000815260040160405180910390fd5b60005b8481101561059057600160008787848181106101f0576101f061155b565b9050602002810190610202919061158a565b610210906020810190611540565b73ffffffffffffffffffffffffffffffffffffffff16815260208101919091526040016000205460ff16610270576040517f70e296ec00000000000000000000000000000000000000000000000000000000815260040160405180910390fd5b600260008787848181106102865761028661155b565b9050602002810190610298919061158a565b6102a6906020810190611540565b73ffffffffffffffffffffffffffffffffffffffff1673ffffffffffffffffffffffffffffffffffffffff16815260200190815260200160002060008787848181106102f4576102f461155b565b9050602002810190610306919061158a565b6103179060408101906020016115c8565b7fffffffff0000000000000000000000000000000000000000000000000000000016815260208101919091526040016000205460ff16610383576040517f4641ca2c00000000000000000000000000000000000000000000000000000000815260040160405180910390fd5b60008686838181106103975761039761155b565b90506020028101906103a9919061158a565b6103b7906020810190611540565b73ffffffffffffffffffffffffffffffffffffffff168585848181106103df576103df61155b565b905060200201358888858181106103f8576103f861155b565b905060200281019061040a919061158a565b61041b9060408101906020016115c8565b858a8a8781811061042e5761042e61155b565b9050602002810190610440919061158a565b61044e9060408101906115e3565b60405160200161046093929190611691565b604080517fffffffffffffffffffffffffffffffffffffffffffffffffffffffffffffffe08184030181529082905261049c92916020016116ee565b604080517fffffffffffffffffffffffffffffffffffffffffffffffffffffffffffffffe0818403018152908290526104d491611736565b60006040518083038185875af1925050503d8060008114610511576040519150601f19603f3d011682016040523d82523d6000602084013e610516565b606091505b505090508061057f578686838181106105315761053161155b565b9050602002810190610543919061158a565b6040517f272b5ecc0000000000000000000000000000000000000000000000000000000081526004016105769190611748565b60405180910390fd5b5061058981611849565b90506101d2565b505061059c6001600055565b50505050565b6105aa611222565b600160006105bb6020840184611540565b73ffffffffffffffffffffffffffffffffffffffff16815260208101919091526040016000205460ff1661061b576040517f70e296ec00000000000000000000000000000000000000000000000000000000815260040160405180910390fd5b6002600061062c6020840184611540565b73ffffffffffffffffffffffffffffffffffffffff1673ffffffffffffffffffffffffffffffffffffffff168152602001908152602001600020600082602001602081019061067b91906115c8565b7fffffffff0000000000000000000000000000000000000000000000000000000016815260208101919091526040016000205460ff166106e7576040517f4641ca2c00000000000000000000000000000000000000000000000000000000815260040160405180910390fd5b6000806106f76020840184611540565b73ffffffffffffffffffffffffffffffffffffffff163461071e60408601602087016115c8565b61072b60408701876115e3565b60405160200161073d93929190611881565b604080517fffffffffffffffffffffffffffffffffffffffffffffffffffffffffffffffe08184030181529082905261077591611736565b60006040518083038185875af1925050503d80600081146107b2576040519150601f19603f3d011682016040523d82523d6000602084013e6107b7565b606091505b50915091508181906107f6576040517f08c379a000000000000000000000000000000000000000000000000000000000815260040161057691906118bd565b5050506108036001600055565b50565b61080e611222565b73ffffffffffffffffffffffffffffffffffffffff821660009081526001602052604090205460ff161561086e576040517f2b02589b00000000000000000000000000000000000000000000000000000000815260040160405180910390fd5b73ffffffffffffffffffffffffffffffffffffffff82166108bb576040517ff8809ade00000000000000000000000000000000000000000000000000000000815260040160405180910390fd5b73ffffffffffffffffffffffffffffffffffffffff82166000908152600160208190526040822080547fffffffffffffffffffffffffffffffffffffffffffffffffffffffffffffff001690911790556003805490919061091b90611849565b9091555060005b81518110156109e35773ffffffffffffffffffffffffffffffffffffffff831660009081526002602052604081208351600192908590859081106109685761096861155b565b6020908102919091018101517fffffffff0000000000000000000000000000000000000000000000000000000016825281019190915260400160002080547fffffffffffffffffffffffffffffffffffffffffffffffffffffffffffffff0016911515919091179055806109db81611849565b915050610922565b50805173ffffffffffffffffffffffffffffffffffffffff831660009081526004602052604081208054909190610a1b90849061190e565b909155505060016000555050565b610a31611222565b73ffffffffffffffffffffffffffffffffffffffff821660009081526001602052604090205460ff16610a90576040517f70e296ec00000000000000000000000000000000000000000000000000000000815260040160405180910390fd5b60005b81518110156109e35773ffffffffffffffffffffffffffffffffffffffff831660009081526002602052604081208351909190849084908110610ad857610ad861155b565b6020908102919091018101517fffffffff000000000000000000000000000000000000000000000000000000001682528101919091526040016000205460ff1615610b4f576040517f34b8a12400000000000000000000000000000000000000000000000000000000815260040160405180910390fd5b73ffffffffffffffffffffffffffffffffffffffff83166000908152600260205260408120835160019290859085908110610b8c57610b8c61155b565b6020908102919091018101517fffffffff0000000000000000000000000000000000000000000000000000000016825281019190915260400160002080547fffffffffffffffffffffffffffffffffffffffffffffffffffffffffffffff001691151591909117905580610bff81611849565b915050610a93565b610c0f611222565b60016000610c206020840184611540565b73ffffffffffffffffffffffffffffffffffffffff16815260208101919091526040016000205460ff16610c80576040517f70e296ec00000000000000000000000000000000000000000000000000000000815260040160405180910390fd5b60026000610c916020840184611540565b73ffffffffffffffffffffffffffffffffffffffff1673ffffffffffffffffffffffffffffffffffffffff1681526020019081526020016000206000826020016020810190610ce091906115c8565b7fffffffff0000000000000000000000000000000000000000000000000000000016815260208101919091526040016000205460ff16610d4c576040517f4641ca2c00000000000000000000000000000000000000000000000000000000815260040160405180910390fd5b6000610d5b6020830183611540565b73ffffffffffffffffffffffffffffffffffffffff1634610d8260408501602086016115c8565b33610d9060408701876115e3565b604051602001610da293929190611691565b604080517fffffffffffffffffffffffffffffffffffffffffffffffffffffffffffffffe081840301815290829052610dde92916020016116ee565b604080517fffffffffffffffffffffffffffffffffffffffffffffffffffffffffffffffe081840301815290829052610e1691611736565b60006040518083038185875af1925050503d8060008114610e53576040519150601f19603f3d011682016040523d82523d6000602084013e610e58565b606091505b5050905080610e9557816040517f272b5ecc0000000000000000000000000000000000000000000000000000000081526004016105769190611748565b506108036001600055565b610ea8611222565b828114610ee1576040517fa755bb2e00000000000000000000000000000000000000000000000000000000815260040160405180910390fd5b60005b838110156112175760016000868684818110610f0257610f0261155b565b9050602002810190610f14919061158a565b610f22906020810190611540565b73ffffffffffffffffffffffffffffffffffffffff16815260208101919091526040016000205460ff16610f82576040517f70e296ec00000000000000000000000000000000000000000000000000000000815260040160405180910390fd5b60026000868684818110610f9857610f9861155b565b9050602002810190610faa919061158a565b610fb8906020810190611540565b73ffffffffffffffffffffffffffffffffffffffff1673ffffffffffffffffffffffffffffffffffffffff16815260200190815260200160002060008686848181106110065761100661155b565b9050602002810190611018919061158a565b6110299060408101906020016115c8565b7fffffffff0000000000000000000000000000000000000000000000000000000016815260208101919091526040016000205460ff16611095576040517f4641ca2c00000000000000000000000000000000000000000000000000000000815260040160405180910390fd5b60008585838181106110a9576110a961155b565b90506020028101906110bb919061158a565b6110c9906020810190611540565b73ffffffffffffffffffffffffffffffffffffffff168484848181106110f1576110f161155b565b9050602002013587878581811061110a5761110a61155b565b905060200281019061111c919061158a565b61112d9060408101906020016115c8565b88888681811061113f5761113f61155b565b9050602002810190611151919061158a565b61115f9060408101906115e3565b60405160200161117193929190611881565b604080517fffffffffffffffffffffffffffffffffffffffffffffffffffffffffffffffe0818403018152908290526111a991611736565b60006040518083038185875af1925050503d80600081146111e6576040519150601f19603f3d011682016040523d82523d6000602084013e6111eb565b606091505b5050905080611206578585838181106105315761053161155b565b5061121081611849565b9050610ee4565b5061059c6001600055565b60026000540361128e576040517f08c379a000000000000000000000000000000000000000000000000000000000815260206004820152601f60248201527f5265656e7472616e637947756172643a207265656e7472616e742063616c6c006044820152606401610576565b6002600055565b60008083601f8401126112a757600080fd5b50813567ffffffffffffffff8111156112bf57600080fd5b6020830191508360208260051b85010111156112da57600080fd5b9250929050565b600080600080604085870312156112f757600080fd5b843567ffffffffffffffff8082111561130f57600080fd5b61131b88838901611295565b9096509450602087013591508082111561133457600080fd5b5061134187828801611295565b95989497509550505050565b60006020828403121561135f57600080fd5b813567ffffffffffffffff81111561137657600080fd5b82016060818503121561138857600080fd5b9392505050565b803573ffffffffffffffffffffffffffffffffffffffff811681146113b357600080fd5b919050565b7f4e487b7100000000000000000000000000000000000000000000000000000000600052604160045260246000fd5b80357fffffffff00000000000000000000000000000000000000000000000000000000811681146113b357600080fd5b6000806040838503121561142a57600080fd5b6114338361138f565b915060208084013567ffffffffffffffff8082111561145157600080fd5b818601915086601f83011261146557600080fd5b813581811115611477576114776113b8565b8060051b6040517fffffffffffffffffffffffffffffffffffffffffffffffffffffffffffffffe0603f830116810181811085821117156114ba576114ba6113b8565b6040529182528482019250838101850191898311156114d857600080fd5b938501935b828510156114fd576114ee856113e7565b845293850193928501926114dd565b8096505050505050509250929050565b6000806040838503121561152057600080fd5b6115298361138f565b9150611537602084016113e7565b90509250929050565b60006020828403121561155257600080fd5b6113888261138f565b7f4e487b7100000000000000000000000000000000000000000000000000000000600052603260045260246000fd5b600082357fffffffffffffffffffffffffffffffffffffffffffffffffffffffffffffffa18336030181126115be57600080fd5b9190910192915050565b6000602082840312156115da57600080fd5b611388826113e7565b60008083357fffffffffffffffffffffffffffffffffffffffffffffffffffffffffffffffe184360301811261161857600080fd5b83018035915067ffffffffffffffff82111561163357600080fd5b6020019150368190038213156112da57600080fd5b8183528181602085013750600060208284010152600060207fffffffffffffffffffffffffffffffffffffffffffffffffffffffffffffffe0601f840116840101905092915050565b73ffffffffffffffffffffffffffffffffffffffff841681526040602082015260006116c1604083018486611648565b95945050505050565b60005b838110156116e55781810151838201526020016116cd565b50506000910152565b7fffffffff0000000000000000000000000000000000000000000000000000000083168152600082516117288160048501602087016116ca565b919091016004019392505050565b600082516115be8184602087016116ca565b6020815273ffffffffffffffffffffffffffffffffffffffff61176a8361138f565b1660208201527fffffffff0000000000000000000000000000000000000000000000000000000061179d602084016113e7565b166040820152600060408301357fffffffffffffffffffffffffffffffffffffffffffffffffffffffffffffffe18436030181126117da57600080fd5b830160208101903567ffffffffffffffff8111156117f757600080fd5b80360382131561180657600080fd5b6060808501526116c1608085018284611648565b7f4e487b7100000000000000000000000000000000000000000000000000000000600052601160045260246000fd5b60007fffffffffffffffffffffffffffffffffffffffffffffffffffffffffffffffff820361187a5761187a61181a565b5060010190565b7fffffffff0000000000000000000000000000000000000000000000000000000084168152818360048301376000910160040190815292915050565b60208152600082518060208401526118dc8160408501602087016116ca565b601f017fffffffffffffffffffffffffffffffffffffffffffffffffffffffffffffffe0169190910160400192915050565b808201808211156119215761192161181a565b9291505056fea2646970667358221220d5c5cdc5665d153a11df780804b6a51ecb231630d637d84bf36d79d6c59acd0b64736f6c63430008140033",
        "nonce": "0x7",
        "accessList": []
      },
      "additionalContracts": [],
      "isFixedGasLimit": false
    },
    {
      "hash": "0x827571b63a870b2a4693b70428c82ddec9ecddaf0606f61167b196fed4932466",
      "transactionType": "CREATE",
      "contractName": "SharedListingTransmitter",
      "contractAddress": "0x662012b468C7A91c00Ce3c49A58CC12c66F1EFd4",
      "function": null,
      "arguments": [
        "0x92403851543c49D4b84138eAbb23F3A5da73d7d3",
        "0x0000000000000000000000000000000000000999",
        "500000000000000"
      ],
      "transaction": {
        "type": "0x02",
        "from": "0x153d2a196dc8f1f6b9aa87241864b3e4d4fec170",
        "gas": "0x1a8d46",
        "value": "0x0",
        "data": "0x60e06040523480156200001157600080fd5b50604051620017ad380380620017ad83398101604081905262000034916200011f565b6001600160a01b038216608081905260a0829052600190839083906200006d576040516306874bfd60e21b815260040160405180910390fd5b505063ffffffff1660c05260016000556200008833620000b0565b5050600280546001600160a01b0319166001600160a01b039290921691909117905562000160565b600180546001600160a01b038381166001600160a01b0319831681179093556040519116919082907f8be0079c531659141344cd1fd0a4f28419497f9722a3daafe3b4186f6b6457e090600090a35050565b80516001600160a01b03811681146200011a57600080fd5b919050565b6000806000606084860312156200013557600080fd5b620001408462000102565b9250620001506020850162000102565b9150604084015190509250925092565b60805160a05160c051611608620001a5600039600061026d01526000818161035a015281816109a70152610c4201526000818161018a0152610ca601526116086000f3fe6080604052600436106100f75760003560e01c8063cf6cd7131161008a578063ddca3f4311610059578063ddca3f4314610348578063dfe559111461037c578063f2fde38b146103bf578063f887ea40146103df57600080fd5b8063cf6cd713146102aa578063d1f57894146102f5578063d3405b8414610315578063d5a06d4c1461032857600080fd5b80637286638c116100c65780637286638c146101fe5780638da5cb5b1461022b578063a0a8e46014610256578063a28a7a311461029757600080fd5b806343070c591461013857806346904840146101785780635a104746146101d1578063715018a6146101e757600080fd5b366101335760405134815233907f8e47b87b0ef542cdfa1659c551d88bad38aa7f452d2bbb349ab7530dfec8be8f9060200160405180910390a2005b600080fd5b34801561014457600080fd5b50610165610153366004610d72565b60066020526000908152604090205481565b6040519081526020015b60405180910390f35b34801561018457600080fd5b506101ac7f000000000000000000000000000000000000000000000000000000000000000081565b60405173ffffffffffffffffffffffffffffffffffffffff909116815260200161016f565b3480156101dd57600080fd5b5061016560035481565b3480156101f357600080fd5b506101fc61040c565b005b34801561020a57600080fd5b50610165610219366004610d72565b60046020526000908152604090205481565b34801561023757600080fd5b5060015473ffffffffffffffffffffffffffffffffffffffff166101ac565b34801561026257600080fd5b5060405163ffffffff7f000000000000000000000000000000000000000000000000000000000000000016815260200161016f565b6101fc6102a5366004610e9a565b610420565b3480156102b657600080fd5b506102e56102c5366004610f2d565b600560209081526000928352604080842090915290825290205460ff1681565b604051901515815260200161016f565b34801561030157600080fd5b506101fc610310366004610e9a565b610630565b6101fc610323366004610e9a565b6107e3565b34801561033457600080fd5b50610165610343366004610d72565b61099f565b34801561035457600080fd5b506101657f000000000000000000000000000000000000000000000000000000000000000081565b34801561038857600080fd5b506101ac610397366004610d72565b60076020526000908152604090205473ffffffffffffffffffffffffffffffffffffffff1681565b3480156103cb57600080fd5b506101fc6103da366004610f5d565b6109d1565b3480156103eb57600080fd5b506002546101ac9073ffffffffffffffffffffffffffffffffffffffff1681565b610414610a8d565b61041e6000610b0e565b565b60025473ffffffffffffffffffffffffffffffffffffffff163314610471576040517fc323970000000000000000000000000000000000000000000000000000000000815260040160405180910390fd5b60008060008380602001905181019061048a919061100b565b600083815260056020908152604080832073ffffffffffffffffffffffffffffffffffffffff8c168452909152902054929550909350915060ff1661056e576105388260046000868152602001908152602001600020548760405160200161051d919060609190911b7fffffffffffffffffffffffffffffffffffffffff00000000000000000000000016815260140190565b60405160208183030381529060405280519060200120610b85565b61056e576040517fe261b94400000000000000000000000000000000000000000000000000000000815260040160405180910390fd5b60005b81518110156105ed57600084815260066020526040902054825183908390811061059d5761059d6110ce565b602002602001015111156105dd576040517f6500b40e00000000000000000000000000000000000000000000000000000000815260040160405180910390fd5b6105e68161112c565b9050610571565b507f391d2ecd7061332e1d3e3e01a6476694150240003fc50b5cb752f19e0adc357485848360405161062193929190611164565b60405180910390a15050505050565b610638610bc7565b60025473ffffffffffffffffffffffffffffffffffffffff163314610689576040517fc323970000000000000000000000000000000000000000000000000000000000815260040160405180910390fd5b6003600081546106989061112c565b90915550600354600081815260066020526040812080549091906106bb9061112c565b919050819055506000806000848060200190518101906106db91906111f3565b600087815260046020526040812083905592955090935091505b8151811015610791576000858152600560205260408120835160019290859085908110610724576107246110ce565b60209081029190910181015173ffffffffffffffffffffffffffffffffffffffff16825281019190915260400160002080547fffffffffffffffffffffffffffffffffffffffffffffffffffffffffffffff001691151591909117905561078a8161112c565b90506106f5565b507fcea987ab060db6d99b7d7bb4b569479e86ea1087bedf241e270cadff2d65dc6e86858585856040516107c99594939291906112ef565b60405180910390a1505050506107df6001600055565b5050565b60025473ffffffffffffffffffffffffffffffffffffffff163314610834576040517fc323970000000000000000000000000000000000000000000000000000000000815260040160405180910390fd5b60008060008380602001905181019061084d91906113d9565b8051600084815260056020908152604080832073ffffffffffffffffffffffffffffffffffffffff8d16845290915290205493965091945092509060ff16610919576108e38360046000878152602001908152602001600020548860405160200161051d919060609190911b7fffffffffffffffffffffffffffffffffffffffff00000000000000000000000016815260140190565b610919576040517fe261b94400000000000000000000000000000000000000000000000000000000815260040160405180910390fd5b6000848152600660205260409020546109339082906114fd565b60008581526006602052604090205561094b81610c3a565b600084815260066020526040908190205490517f235dc8a8528b17d169fba77337a73b46016e194b44d81931083430f8b33359869161098f91899188918790611510565b60405180910390a1505050505050565b60006109cb827f00000000000000000000000000000000000000000000000000000000000000006115bb565b92915050565b6109d9610a8d565b73ffffffffffffffffffffffffffffffffffffffff8116610a81576040517f08c379a000000000000000000000000000000000000000000000000000000000815260206004820152602660248201527f4f776e61626c653a206e6577206f776e657220697320746865207a65726f206160448201527f646472657373000000000000000000000000000000000000000000000000000060648201526084015b60405180910390fd5b610a8a81610b0e565b50565b60015473ffffffffffffffffffffffffffffffffffffffff16331461041e576040517f08c379a000000000000000000000000000000000000000000000000000000000815260206004820181905260248201527f4f776e61626c653a2063616c6c6572206973206e6f7420746865206f776e65726044820152606401610a78565b6001805473ffffffffffffffffffffffffffffffffffffffff8381167fffffffffffffffffffffffff0000000000000000000000000000000000000000831681179093556040519116919082907f8be0079c531659141344cd1fd0a4f28419497f9722a3daafe3b4186f6b6457e090600090a35050565b6000835115610bc05760208401845160051b81015b8151841160051b938452815160209485185260406000209390910190808210610b9a5750505b5014919050565b600260005403610c33576040517f08c379a000000000000000000000000000000000000000000000000000000000815260206004820152601f60248201527f5265656e7472616e637947756172643a207265656e7472616e742063616c6c006044820152606401610a78565b6002600055565b6000610c66827f00000000000000000000000000000000000000000000000000000000000000006115bb565b9050803414610ca1576040517f74006c5b00000000000000000000000000000000000000000000000000000000815260040160405180910390fd5b610ccf7f0000000000000000000000000000000000000000000000000000000000000000826201adb0610d05565b6107df576040517f2025a86600000000000000000000000000000000000000000000000000000000815260040160405180910390fd5b60008373ffffffffffffffffffffffffffffffffffffffff16838390604051600060405180830381858888f193505050503d8060008114610d62576040519150601f19603f3d011682016040523d82523d6000602084013e610d67565b606091505b509095945050505050565b600060208284031215610d8457600080fd5b5035919050565b73ffffffffffffffffffffffffffffffffffffffff81168114610a8a57600080fd5b7f4e487b7100000000000000000000000000000000000000000000000000000000600052604160045260246000fd5b6040516080810167ffffffffffffffff81118282101715610dff57610dff610dad565b60405290565b604051601f82017fffffffffffffffffffffffffffffffffffffffffffffffffffffffffffffffe016810167ffffffffffffffff81118282101715610e4c57610e4c610dad565b604052919050565b600067ffffffffffffffff821115610e6e57610e6e610dad565b50601f017fffffffffffffffffffffffffffffffffffffffffffffffffffffffffffffffe01660200190565b60008060408385031215610ead57600080fd5b8235610eb881610d8b565b9150602083013567ffffffffffffffff811115610ed457600080fd5b8301601f81018513610ee557600080fd5b8035610ef8610ef382610e54565b610e05565b818152866020838501011115610f0d57600080fd5b816020840160208301376000602083830101528093505050509250929050565b60008060408385031215610f4057600080fd5b823591506020830135610f5281610d8b565b809150509250929050565b600060208284031215610f6f57600080fd5b8135610f7a81610d8b565b9392505050565b600067ffffffffffffffff821115610f9b57610f9b610dad565b5060051b60200190565b600082601f830112610fb657600080fd5b81516020610fc6610ef383610f81565b82815260059290921b84018101918181019086841115610fe557600080fd5b8286015b848110156110005780518352918301918301610fe9565b509695505050505050565b60008060006060848603121561102057600080fd5b8351925060208085015167ffffffffffffffff8082111561104057600080fd5b61104c88838901610fa5565b9450604087015191508082111561106257600080fd5b508501601f8101871361107457600080fd5b8051611082610ef382610f81565b81815260059190911b820183019083810190898311156110a157600080fd5b928401925b828410156110bf578351825292840192908401906110a6565b80955050505050509250925092565b7f4e487b7100000000000000000000000000000000000000000000000000000000600052603260045260246000fd5b7f4e487b7100000000000000000000000000000000000000000000000000000000600052601160045260246000fd5b60007fffffffffffffffffffffffffffffffffffffffffffffffffffffffffffffffff820361115d5761115d6110fd565b5060010190565b60006060820173ffffffffffffffffffffffffffffffffffffffff861683526020858185015260606040850152818551808452608086019150828701935060005b818110156111c1578451835293830193918301916001016111a5565b509098975050505050505050565b60005b838110156111ea5781810151838201526020016111d2565b50506000910152565b60008060006060848603121561120857600080fd5b835167ffffffffffffffff8082111561122057600080fd5b818601915086601f83011261123457600080fd5b81516020611244610ef383610e54565b828152898284870101111561125857600080fd5b611267838383018488016111cf565b8882015160408a0151919850965093508284111561128457600080fd5b838801935088601f85011261129857600080fd5b835192506112a8610ef384610f81565b83815260059390931b84018101928181019250898411156112c857600080fd5b938101935b838510156110bf5784516112e081610d8b565b835293810193918101916112cd565b600073ffffffffffffffffffffffffffffffffffffffff80881683526020878185015260a0604085015286518060a08601526113318160c08701848b016111cf565b60608501879052601f017fffffffffffffffffffffffffffffffffffffffffffffffffffffffffffffffe016840184810360c0908101608087015286519082018190528287019160009160e0909101905b808310156113a457835186168252928401926001929092019190840190611382565b509b9a5050505050505050505050565b80516fffffffffffffffffffffffffffffffff811681146113d457600080fd5b919050565b600080600060608085870312156113ef57600080fd5b8451935060208086015167ffffffffffffffff8082111561140f57600080fd5b61141b89838a01610fa5565b955060409150818801518181111561143257600080fd5b88019050601f8101891361144557600080fd5b8051611453610ef382610f81565b81815260079190911b8201840190848101908b83111561147257600080fd5b928501925b828410156114ec576080848d0312156114905760008081fd5b611498610ddc565b6114a1856113b4565b81526114ae8786016113b4565b87820152858501516114bf81610d8b565b818701528488015180151581146114d65760008081fd5b8189015282526080939093019290850190611477565b809750505050505050509250925092565b808201808211156109cb576109cb6110fd565b6000608080830173ffffffffffffffffffffffffffffffffffffffff808916855260208881870152604088818801526060858189015284895180875260a08a019150848b01965060005b818110156115a857875180516fffffffffffffffffffffffffffffffff908116855287820151168785015285810151881686850152840151151584840152968501969188019160010161155a565b50909d9c50505050505050505050505050565b80820281158282048414176109cb576109cb6110fd56fea2646970667358221220f9edd16300d80be7a19e5877209863076cb7867c9a23a2bc1a3faae838dc43a464736f6c6343000814003300000000000000000000000092403851543c49d4b84138eabb23f3a5da73d7d300000000000000000000000000000000000000000000000000000000000009990000000000000000000000000000000000000000000000000001c6bf52634000",
        "nonce": "0x8",
        "accessList": []
      },
      "additionalContracts": [],
      "isFixedGasLimit": false
    },
    {
      "hash": "0xc17b5aa1d015a4b5048781159341d3443f74bf9068f784966c7d19afab630027",
      "transactionType": "CREATE",
      "contractName": "SharedListingTransmitter",
      "contractAddress": "0x070E9C3386023748cc30Ac389a14c787BE0278d1",
      "function": null,
      "arguments": [
        "0x92403851543c49D4b84138eAbb23F3A5da73d7d3",
        "0x0000000000000000000000000000000000000999",
        "500000000000000"
      ],
      "transaction": {
        "type": "0x02",
        "from": "0x153d2a196dc8f1f6b9aa87241864b3e4d4fec170",
        "gas": "0x1a8d46",
        "value": "0x0",
        "data": "0x60e06040523480156200001157600080fd5b50604051620017ad380380620017ad83398101604081905262000034916200011f565b6001600160a01b038216608081905260a0829052600190839083906200006d576040516306874bfd60e21b815260040160405180910390fd5b505063ffffffff1660c05260016000556200008833620000b0565b5050600280546001600160a01b0319166001600160a01b039290921691909117905562000160565b600180546001600160a01b038381166001600160a01b0319831681179093556040519116919082907f8be0079c531659141344cd1fd0a4f28419497f9722a3daafe3b4186f6b6457e090600090a35050565b80516001600160a01b03811681146200011a57600080fd5b919050565b6000806000606084860312156200013557600080fd5b620001408462000102565b9250620001506020850162000102565b9150604084015190509250925092565b60805160a05160c051611608620001a5600039600061026d01526000818161035a015281816109a70152610c4201526000818161018a0152610ca601526116086000f3fe6080604052600436106100f75760003560e01c8063cf6cd7131161008a578063ddca3f4311610059578063ddca3f4314610348578063dfe559111461037c578063f2fde38b146103bf578063f887ea40146103df57600080fd5b8063cf6cd713146102aa578063d1f57894146102f5578063d3405b8414610315578063d5a06d4c1461032857600080fd5b80637286638c116100c65780637286638c146101fe5780638da5cb5b1461022b578063a0a8e46014610256578063a28a7a311461029757600080fd5b806343070c591461013857806346904840146101785780635a104746146101d1578063715018a6146101e757600080fd5b366101335760405134815233907f8e47b87b0ef542cdfa1659c551d88bad38aa7f452d2bbb349ab7530dfec8be8f9060200160405180910390a2005b600080fd5b34801561014457600080fd5b50610165610153366004610d72565b60066020526000908152604090205481565b6040519081526020015b60405180910390f35b34801561018457600080fd5b506101ac7f000000000000000000000000000000000000000000000000000000000000000081565b60405173ffffffffffffffffffffffffffffffffffffffff909116815260200161016f565b3480156101dd57600080fd5b5061016560035481565b3480156101f357600080fd5b506101fc61040c565b005b34801561020a57600080fd5b50610165610219366004610d72565b60046020526000908152604090205481565b34801561023757600080fd5b5060015473ffffffffffffffffffffffffffffffffffffffff166101ac565b34801561026257600080fd5b5060405163ffffffff7f000000000000000000000000000000000000000000000000000000000000000016815260200161016f565b6101fc6102a5366004610e9a565b610420565b3480156102b657600080fd5b506102e56102c5366004610f2d565b600560209081526000928352604080842090915290825290205460ff1681565b604051901515815260200161016f565b34801561030157600080fd5b506101fc610310366004610e9a565b610630565b6101fc610323366004610e9a565b6107e3565b34801561033457600080fd5b50610165610343366004610d72565b61099f565b34801561035457600080fd5b506101657f000000000000000000000000000000000000000000000000000000000000000081565b34801561038857600080fd5b506101ac610397366004610d72565b60076020526000908152604090205473ffffffffffffffffffffffffffffffffffffffff1681565b3480156103cb57600080fd5b506101fc6103da366004610f5d565b6109d1565b3480156103eb57600080fd5b506002546101ac9073ffffffffffffffffffffffffffffffffffffffff1681565b610414610a8d565b61041e6000610b0e565b565b60025473ffffffffffffffffffffffffffffffffffffffff163314610471576040517fc323970000000000000000000000000000000000000000000000000000000000815260040160405180910390fd5b60008060008380602001905181019061048a919061100b565b600083815260056020908152604080832073ffffffffffffffffffffffffffffffffffffffff8c168452909152902054929550909350915060ff1661056e576105388260046000868152602001908152602001600020548760405160200161051d919060609190911b7fffffffffffffffffffffffffffffffffffffffff00000000000000000000000016815260140190565b60405160208183030381529060405280519060200120610b85565b61056e576040517fe261b94400000000000000000000000000000000000000000000000000000000815260040160405180910390fd5b60005b81518110156105ed57600084815260066020526040902054825183908390811061059d5761059d6110ce565b602002602001015111156105dd576040517f6500b40e00000000000000000000000000000000000000000000000000000000815260040160405180910390fd5b6105e68161112c565b9050610571565b507f391d2ecd7061332e1d3e3e01a6476694150240003fc50b5cb752f19e0adc357485848360405161062193929190611164565b60405180910390a15050505050565b610638610bc7565b60025473ffffffffffffffffffffffffffffffffffffffff163314610689576040517fc323970000000000000000000000000000000000000000000000000000000000815260040160405180910390fd5b6003600081546106989061112c565b90915550600354600081815260066020526040812080549091906106bb9061112c565b919050819055506000806000848060200190518101906106db91906111f3565b600087815260046020526040812083905592955090935091505b8151811015610791576000858152600560205260408120835160019290859085908110610724576107246110ce565b60209081029190910181015173ffffffffffffffffffffffffffffffffffffffff16825281019190915260400160002080547fffffffffffffffffffffffffffffffffffffffffffffffffffffffffffffff001691151591909117905561078a8161112c565b90506106f5565b507fcea987ab060db6d99b7d7bb4b569479e86ea1087bedf241e270cadff2d65dc6e86858585856040516107c99594939291906112ef565b60405180910390a1505050506107df6001600055565b5050565b60025473ffffffffffffffffffffffffffffffffffffffff163314610834576040517fc323970000000000000000000000000000000000000000000000000000000000815260040160405180910390fd5b60008060008380602001905181019061084d91906113d9565b8051600084815260056020908152604080832073ffffffffffffffffffffffffffffffffffffffff8d16845290915290205493965091945092509060ff16610919576108e38360046000878152602001908152602001600020548860405160200161051d919060609190911b7fffffffffffffffffffffffffffffffffffffffff00000000000000000000000016815260140190565b610919576040517fe261b94400000000000000000000000000000000000000000000000000000000815260040160405180910390fd5b6000848152600660205260409020546109339082906114fd565b60008581526006602052604090205561094b81610c3a565b600084815260066020526040908190205490517f235dc8a8528b17d169fba77337a73b46016e194b44d81931083430f8b33359869161098f91899188918790611510565b60405180910390a1505050505050565b60006109cb827f00000000000000000000000000000000000000000000000000000000000000006115bb565b92915050565b6109d9610a8d565b73ffffffffffffffffffffffffffffffffffffffff8116610a81576040517f08c379a000000000000000000000000000000000000000000000000000000000815260206004820152602660248201527f4f776e61626c653a206e6577206f776e657220697320746865207a65726f206160448201527f646472657373000000000000000000000000000000000000000000000000000060648201526084015b60405180910390fd5b610a8a81610b0e565b50565b60015473ffffffffffffffffffffffffffffffffffffffff16331461041e576040517f08c379a000000000000000000000000000000000000000000000000000000000815260206004820181905260248201527f4f776e61626c653a2063616c6c6572206973206e6f7420746865206f776e65726044820152606401610a78565b6001805473ffffffffffffffffffffffffffffffffffffffff8381167fffffffffffffffffffffffff0000000000000000000000000000000000000000831681179093556040519116919082907f8be0079c531659141344cd1fd0a4f28419497f9722a3daafe3b4186f6b6457e090600090a35050565b6000835115610bc05760208401845160051b81015b8151841160051b938452815160209485185260406000209390910190808210610b9a5750505b5014919050565b600260005403610c33576040517f08c379a000000000000000000000000000000000000000000000000000000000815260206004820152601f60248201527f5265656e7472616e637947756172643a207265656e7472616e742063616c6c006044820152606401610a78565b6002600055565b6000610c66827f00000000000000000000000000000000000000000000000000000000000000006115bb565b9050803414610ca1576040517f74006c5b00000000000000000000000000000000000000000000000000000000815260040160405180910390fd5b610ccf7f0000000000000000000000000000000000000000000000000000000000000000826201adb0610d05565b6107df576040517f2025a86600000000000000000000000000000000000000000000000000000000815260040160405180910390fd5b60008373ffffffffffffffffffffffffffffffffffffffff16838390604051600060405180830381858888f193505050503d8060008114610d62576040519150601f19603f3d011682016040523d82523d6000602084013e610d67565b606091505b509095945050505050565b600060208284031215610d8457600080fd5b5035919050565b73ffffffffffffffffffffffffffffffffffffffff81168114610a8a57600080fd5b7f4e487b7100000000000000000000000000000000000000000000000000000000600052604160045260246000fd5b6040516080810167ffffffffffffffff81118282101715610dff57610dff610dad565b60405290565b604051601f82017fffffffffffffffffffffffffffffffffffffffffffffffffffffffffffffffe016810167ffffffffffffffff81118282101715610e4c57610e4c610dad565b604052919050565b600067ffffffffffffffff821115610e6e57610e6e610dad565b50601f017fffffffffffffffffffffffffffffffffffffffffffffffffffffffffffffffe01660200190565b60008060408385031215610ead57600080fd5b8235610eb881610d8b565b9150602083013567ffffffffffffffff811115610ed457600080fd5b8301601f81018513610ee557600080fd5b8035610ef8610ef382610e54565b610e05565b818152866020838501011115610f0d57600080fd5b816020840160208301376000602083830101528093505050509250929050565b60008060408385031215610f4057600080fd5b823591506020830135610f5281610d8b565b809150509250929050565b600060208284031215610f6f57600080fd5b8135610f7a81610d8b565b9392505050565b600067ffffffffffffffff821115610f9b57610f9b610dad565b5060051b60200190565b600082601f830112610fb657600080fd5b81516020610fc6610ef383610f81565b82815260059290921b84018101918181019086841115610fe557600080fd5b8286015b848110156110005780518352918301918301610fe9565b509695505050505050565b60008060006060848603121561102057600080fd5b8351925060208085015167ffffffffffffffff8082111561104057600080fd5b61104c88838901610fa5565b9450604087015191508082111561106257600080fd5b508501601f8101871361107457600080fd5b8051611082610ef382610f81565b81815260059190911b820183019083810190898311156110a157600080fd5b928401925b828410156110bf578351825292840192908401906110a6565b80955050505050509250925092565b7f4e487b7100000000000000000000000000000000000000000000000000000000600052603260045260246000fd5b7f4e487b7100000000000000000000000000000000000000000000000000000000600052601160045260246000fd5b60007fffffffffffffffffffffffffffffffffffffffffffffffffffffffffffffffff820361115d5761115d6110fd565b5060010190565b60006060820173ffffffffffffffffffffffffffffffffffffffff861683526020858185015260606040850152818551808452608086019150828701935060005b818110156111c1578451835293830193918301916001016111a5565b509098975050505050505050565b60005b838110156111ea5781810151838201526020016111d2565b50506000910152565b60008060006060848603121561120857600080fd5b835167ffffffffffffffff8082111561122057600080fd5b818601915086601f83011261123457600080fd5b81516020611244610ef383610e54565b828152898284870101111561125857600080fd5b611267838383018488016111cf565b8882015160408a0151919850965093508284111561128457600080fd5b838801935088601f85011261129857600080fd5b835192506112a8610ef384610f81565b83815260059390931b84018101928181019250898411156112c857600080fd5b938101935b838510156110bf5784516112e081610d8b565b835293810193918101916112cd565b600073ffffffffffffffffffffffffffffffffffffffff80881683526020878185015260a0604085015286518060a08601526113318160c08701848b016111cf565b60608501879052601f017fffffffffffffffffffffffffffffffffffffffffffffffffffffffffffffffe016840184810360c0908101608087015286519082018190528287019160009160e0909101905b808310156113a457835186168252928401926001929092019190840190611382565b509b9a5050505050505050505050565b80516fffffffffffffffffffffffffffffffff811681146113d457600080fd5b919050565b600080600060608085870312156113ef57600080fd5b8451935060208086015167ffffffffffffffff8082111561140f57600080fd5b61141b89838a01610fa5565b955060409150818801518181111561143257600080fd5b88019050601f8101891361144557600080fd5b8051611453610ef382610f81565b81815260079190911b8201840190848101908b83111561147257600080fd5b928501925b828410156114ec576080848d0312156114905760008081fd5b611498610ddc565b6114a1856113b4565b81526114ae8786016113b4565b87820152858501516114bf81610d8b565b818701528488015180151581146114d65760008081fd5b8189015282526080939093019290850190611477565b809750505050505050509250925092565b808201808211156109cb576109cb6110fd565b6000608080830173ffffffffffffffffffffffffffffffffffffffff808916855260208881870152604088818801526060858189015284895180875260a08a019150848b01965060005b818110156115a857875180516fffffffffffffffffffffffffffffffff908116855287820151168785015285810151881686850152840151151584840152968501969188019160010161155a565b50909d9c50505050505050505050505050565b80820281158282048414176109cb576109cb6110fd56fea2646970667358221220f9edd16300d80be7a19e5877209863076cb7867c9a23a2bc1a3faae838dc43a464736f6c6343000814003300000000000000000000000092403851543c49d4b84138eabb23f3a5da73d7d300000000000000000000000000000000000000000000000000000000000009990000000000000000000000000000000000000000000000000001c6bf52634000",
        "nonce": "0x9",
        "accessList": []
      },
      "additionalContracts": [],
      "isFixedGasLimit": false
    },
    {
      "hash": "0x91de08a9f0b8a04b67bcc3c8a0d11f2666f44dab9ec1d94b7bf1b8e9f500e83b",
      "transactionType": "CALL",
      "contractName": "RouterV2",
      "contractAddress": "0x92403851543c49D4b84138eAbb23F3A5da73d7d3",
      "function": "registerTarget(address,bytes4[])",
      "arguments": [
        "0x662012b468C7A91c00Ce3c49A58CC12c66F1EFd4",
        "[0xd1f57894, 0xd3405b84]"
      ],
      "transaction": {
        "type": "0x02",
        "from": "0x153d2a196dc8f1f6b9aa87241864b3e4d4fec170",
        "to": "0x92403851543c49d4b84138eabb23f3a5da73d7d3",
        "gas": "0x31045",
        "value": "0x0",
        "data": "0x3c6fa38f000000000000000000000000662012b468c7a91c00ce3c49a58cc12c66f1efd400000000000000000000000000000000000000000000000000000000000000400000000000000000000000000000000000000000000000000000000000000002d1f5789400000000000000000000000000000000000000000000000000000000d3405b8400000000000000000000000000000000000000000000000000000000",
        "nonce": "0xa",
        "accessList": []
      },
      "additionalContracts": [],
      "isFixedGasLimit": false
    },
    {
      "hash": "0xa935425e3e2b77a29303e06d231968964535bf12c80542b5a452ac8ce7ee3b33",
      "transactionType": "CALL",
      "contractName": "RouterV2",
      "contractAddress": "0x92403851543c49D4b84138eAbb23F3A5da73d7d3",
      "function": "registerTarget(address,bytes4[])",
      "arguments": [
        "0x070E9C3386023748cc30Ac389a14c787BE0278d1",
        "[0xd1f57894, 0xd3405b84]"
      ],
      "transaction": {
        "type": "0x02",
        "from": "0x153d2a196dc8f1f6b9aa87241864b3e4d4fec170",
        "to": "0x92403851543c49d4b84138eabb23f3a5da73d7d3",
        "gas": "0x2aea6",
        "value": "0x0",
        "data": "0x3c6fa38f000000000000000000000000070e9c3386023748cc30ac389a14c787be0278d100000000000000000000000000000000000000000000000000000000000000400000000000000000000000000000000000000000000000000000000000000002d1f5789400000000000000000000000000000000000000000000000000000000d3405b8400000000000000000000000000000000000000000000000000000000",
        "nonce": "0xb",
        "accessList": []
      },
      "additionalContracts": [],
      "isFixedGasLimit": false
    },
    {
      "hash": "0x300f90cb705369eb2d302ffde33648cebf51d2a2420b8c3ea1d46f5bd30273be",
      "transactionType": "CALL",
      "contractName": "RouterV2",
      "contractAddress": "0x92403851543c49D4b84138eAbb23F3A5da73d7d3",
      "function": "callTarget((address,bytes4,bytes))",
      "arguments": [
        "(0x662012b468C7A91c00Ce3c49A58CC12c66F1EFd4, 0xd1f57894, 0x0000000000000000000000000000000000000000000000000000000000000060b494f4f51d001f39414763c301687a74a238d923b8c2f89162dd568edabce40000000000000000000000000000000000000000000000000000000000000000a00000000000000000000000000000000000000000000000000000000000000016697066733a2f2f74657374696e675f74657374696e67000000000000000000000000000000000000000000000000000000000000000000000000000000000001000000000000000000000000153d2a196dc8f1f6b9aa87241864b3e4d4fec170)"
      ],
      "transaction": {
        "type": "0x02",
        "from": "0x153d2a196dc8f1f6b9aa87241864b3e4d4fec170",
        "to": "0x92403851543c49d4b84138eabb23f3a5da73d7d3",
        "gas": "0x2deee",
        "value": "0x0",
        "data": "0xbc053cf10000000000000000000000000000000000000000000000000000000000000020000000000000000000000000662012b468c7a91c00ce3c49a58cc12c66f1efd4d1f5789400000000000000000000000000000000000000000000000000000000000000000000000000000000000000000000000000000000000000000000006000000000000000000000000000000000000000000000000000000000000000e00000000000000000000000000000000000000000000000000000000000000060b494f4f51d001f39414763c301687a74a238d923b8c2f89162dd568edabce40000000000000000000000000000000000000000000000000000000000000000a00000000000000000000000000000000000000000000000000000000000000016697066733a2f2f74657374696e675f74657374696e67000000000000000000000000000000000000000000000000000000000000000000000000000000000001000000000000000000000000153d2a196dc8f1f6b9aa87241864b3e4d4fec170",
        "nonce": "0xc",
        "accessList": []
      },
      "additionalContracts": [],
      "isFixedGasLimit": false
    },
    {
      "hash": "0x161794f92cc4cadcf794cf2fefd5632b5f6d9b16329da065b775d3a7e9d89a2a",
      "transactionType": "CALL",
      "contractName": "RouterV2",
      "contractAddress": "0x92403851543c49D4b84138eAbb23F3A5da73d7d3",
      "function": "callTarget((address,bytes4,bytes))",
      "arguments": [
        "(0x070E9C3386023748cc30Ac389a14c787BE0278d1, 0xd1f57894, 0x0000000000000000000000000000000000000000000000000000000000000060b494f4f51d001f39414763c301687a74a238d923b8c2f89162dd568edabce40000000000000000000000000000000000000000000000000000000000000000a00000000000000000000000000000000000000000000000000000000000000016697066733a2f2f74657374696e675f74657374696e67000000000000000000000000000000000000000000000000000000000000000000000000000000000001000000000000000000000000153d2a196dc8f1f6b9aa87241864b3e4d4fec170)"
      ],
      "transaction": {
        "type": "0x02",
        "from": "0x153d2a196dc8f1f6b9aa87241864b3e4d4fec170",
        "to": "0x92403851543c49d4b84138eabb23f3a5da73d7d3",
        "gas": "0x2deff",
        "value": "0x0",
        "data": "0xbc053cf10000000000000000000000000000000000000000000000000000000000000020000000000000000000000000070e9c3386023748cc30ac389a14c787be0278d1d1f5789400000000000000000000000000000000000000000000000000000000000000000000000000000000000000000000000000000000000000000000006000000000000000000000000000000000000000000000000000000000000000e00000000000000000000000000000000000000000000000000000000000000060b494f4f51d001f39414763c301687a74a238d923b8c2f89162dd568edabce40000000000000000000000000000000000000000000000000000000000000000a00000000000000000000000000000000000000000000000000000000000000016697066733a2f2f74657374696e675f74657374696e67000000000000000000000000000000000000000000000000000000000000000000000000000000000001000000000000000000000000153d2a196dc8f1f6b9aa87241864b3e4d4fec170",
        "nonce": "0xd",
        "accessList": []
      },
      "additionalContracts": [],
      "isFixedGasLimit": false
    },
    {
      "hash": "0x2f31af7eae460967ed38b2463e0993be64850f478981fbd81740b9004e31fe6b",
      "transactionType": "CALL",
      "contractName": "RouterV2",
      "contractAddress": "0x92403851543c49D4b84138eAbb23F3A5da73d7d3",
      "function": "callTarget((address,bytes4,bytes))",
      "arguments": [
        "(0x662012b468C7A91c00Ce3c49A58CC12c66F1EFd4, 0xd3405b84, 0x0000000000000000000000000000000000000000000000000000000000000001000000000000000000000000000000000000000000000000000000000000006000000000000000000000000000000000000000000000000000000000000000a0000000000000000000000000000000000000000000000000000000000000000100000000000000000000000000000000000000000000000000000000000000000000000000000000000000000000000000000000000000000000000000000001000000000000000000000000000000000000000000000000000000000076adf1000000000000000000000000000000000000000000000000000000000000001100000000000000000000000000000000000000000000000000000000077777770000000000000000000000000000000000000000000000000000000000000001)"
      ],
      "transaction": {
        "type": "0x02",
        "from": "0x153d2a196dc8f1f6b9aa87241864b3e4d4fec170",
        "to": "0x92403851543c49d4b84138eabb23f3a5da73d7d3",
        "gas": "0x1faf5",
        "value": "0x1c6bf52634000",
        "data": "0xbc053cf10000000000000000000000000000000000000000000000000000000000000020000000000000000000000000662012b468c7a91c00ce3c49a58cc12c66f1efd4d3405b8400000000000000000000000000000000000000000000000000000000000000000000000000000000000000000000000000000000000000000000006000000000000000000000000000000000000000000000000000000000000001400000000000000000000000000000000000000000000000000000000000000001000000000000000000000000000000000000000000000000000000000000006000000000000000000000000000000000000000000000000000000000000000a0000000000000000000000000000000000000000000000000000000000000000100000000000000000000000000000000000000000000000000000000000000000000000000000000000000000000000000000000000000000000000000000001000000000000000000000000000000000000000000000000000000000076adf1000000000000000000000000000000000000000000000000000000000000001100000000000000000000000000000000000000000000000000000000077777770000000000000000000000000000000000000000000000000000000000000001",
        "nonce": "0xe",
        "accessList": []
      },
      "additionalContracts": [],
      "isFixedGasLimit": false
    },
    {
      "hash": "0xff6c421b24eb626fff1a3578beb1414f936216e149bd3b3fffdb382fae8661f2",
      "transactionType": "CALL",
      "contractName": "RouterV2",
      "contractAddress": "0x92403851543c49D4b84138eAbb23F3A5da73d7d3",
      "function": "callTargetMulti((address,bytes4,bytes)[],uint256[])",
      "arguments": [
        "[(0x662012b468C7A91c00Ce3c49A58CC12c66F1EFd4, 0xd3405b84, 0x0000000000000000000000000000000000000000000000000000000000000001000000000000000000000000000000000000000000000000000000000000006000000000000000000000000000000000000000000000000000000000000000a0000000000000000000000000000000000000000000000000000000000000000100000000000000000000000000000000000000000000000000000000000000000000000000000000000000000000000000000000000000000000000000000001000000000000000000000000000000000000000000000000000000000076adf1000000000000000000000000000000000000000000000000000000000000001100000000000000000000000000000000000000000000000000000000077777770000000000000000000000000000000000000000000000000000000000000001), (0x070E9C3386023748cc30Ac389a14c787BE0278d1, 0xd3405b84, 0x0000000000000000000000000000000000000000000000000000000000000001000000000000000000000000000000000000000000000000000000000000006000000000000000000000000000000000000000000000000000000000000000a0000000000000000000000000000000000000000000000000000000000000000100000000000000000000000000000000000000000000000000000000000000000000000000000000000000000000000000000000000000000000000000000001000000000000000000000000000000000000000000000000000000000076adf1000000000000000000000000000000000000000000000000000000000000001100000000000000000000000000000000000000000000000000000000077777770000000000000000000000000000000000000000000000000000000000000001)]",
        "[500000000000000, 500000000000000]"
      ],
      "transaction": {
        "type": "0x02",
        "from": "0x153d2a196dc8f1f6b9aa87241864b3e4d4fec170",
        "to": "0x92403851543c49d4b84138eabb23f3a5da73d7d3",
        "gas": "0x26d84",
        "value": "0x38d7ea4c68000",
        "data": "0x088363c700000000000000000000000000000000000000000000000000000000000000400000000000000000000000000000000000000000000000000000000000000420000000000000000000000000000000000000000000000000000000000000000200000000000000000000000000000000000000000000000000000000000000400000000000000000000000000000000000000000000000000000000000000200000000000000000000000000662012b468c7a91c00ce3c49a58cc12c66f1efd4d3405b8400000000000000000000000000000000000000000000000000000000000000000000000000000000000000000000000000000000000000000000006000000000000000000000000000000000000000000000000000000000000001400000000000000000000000000000000000000000000000000000000000000001000000000000000000000000000000000000000000000000000000000000006000000000000000000000000000000000000000000000000000000000000000a0000000000000000000000000000000000000000000000000000000000000000100000000000000000000000000000000000000000000000000000000000000000000000000000000000000000000000000000000000000000000000000000001000000000000000000000000000000000000000000000000000000000076adf1000000000000000000000000000000000000000000000000000000000000001100000000000000000000000000000000000000000000000000000000077777770000000000000000000000000000000000000000000000000000000000000001000000000000000000000000070e9c3386023748cc30ac389a14c787be0278d1d3405b8400000000000000000000000000000000000000000000000000000000000000000000000000000000000000000000000000000000000000000000006000000000000000000000000000000000000000000000000000000000000001400000000000000000000000000000000000000000000000000000000000000001000000000000000000000000000000000000000000000000000000000000006000000000000000000000000000000000000000000000000000000000000000a0000000000000000000000000000000000000000000000000000000000000000100000000000000000000000000000000000000000000000000000000000000000000000000000000000000000000000000000000000000000000000000000001000000000000000000000000000000000000000000000000000000000076adf100000000000000000000000000000000000000000000000000000000000000110000000000000000000000000000000000000000000000000000000007777777000000000000000000000000000000000000000000000000000000000000000100000000000000000000000000000000000000000000000000000000000000020000000000000000000000000000000000000000000000000001c6bf526340000000000000000000000000000000000000000000000000000001c6bf52634000",
        "nonce": "0xf",
        "accessList": []
      },
      "additionalContracts": [],
      "isFixedGasLimit": false
    }
  ],
  "receipts": [
    {
      "transactionHash": "0xf91e633b2507f344428173fa71e16529625b09fec558d3a1ee154cf68372138f",
      "transactionIndex": "0x2",
      "blockHash": "0xbe16f4b6d192baff15cca7f859bd6d747539fe8d795328094f023392a92214b5",
      "blockNumber": "0x681e102",
      "from": "0x153D2A196dc8f1F6b9Aa87241864B3e4d4FEc170",
      "to": null,
      "cumulativeGasUsed": "0x19542b",
      "gasUsed": "0x16622b",
      "contractAddress": "0x92403851543c49D4b84138eAbb23F3A5da73d7d3",
      "logs": [],
      "status": "0x1",
      "logsBloom": "0x00000000000000000000000000000000000000000000000000000000000000000000000000000000000000000000000000000000000000000000000000000000000000000000000000000000000000000000000000000000000000000000000000000000000000000000000000000000000000000000000000000000000000000000000000000000000000000000000000000000000000000000000000000000000000000000000000000000000000000000000000000000000000000000000000000000000000000000000000000000000000000000000000000000000000000000000000000000000000000000000000000000000000000000000000000000",
      "type": "0x2",
      "effectiveGasPrice": "0xb2d05e33"
    },
    {
      "transactionHash": "0x827571b63a870b2a4693b70428c82ddec9ecddaf0606f61167b196fed4932466",
      "transactionIndex": "0x3",
      "blockHash": "0xbe16f4b6d192baff15cca7f859bd6d747539fe8d795328094f023392a92214b5",
      "blockNumber": "0x681e102",
      "from": "0x153D2A196dc8f1F6b9Aa87241864B3e4d4FEc170",
      "to": null,
      "cumulativeGasUsed": "0x2dc0d7",
      "gasUsed": "0x146cac",
      "contractAddress": "0x662012b468C7A91c00Ce3c49A58CC12c66F1EFd4",
      "logs": [
        {
          "address": "0x662012b468C7A91c00Ce3c49A58CC12c66F1EFd4",
          "topics": [
            "0x8be0079c531659141344cd1fd0a4f28419497f9722a3daafe3b4186f6b6457e0",
            "0x0000000000000000000000000000000000000000000000000000000000000000",
            "0x000000000000000000000000153d2a196dc8f1f6b9aa87241864b3e4d4fec170"
          ],
          "data": "0x",
          "blockHash": "0xbe16f4b6d192baff15cca7f859bd6d747539fe8d795328094f023392a92214b5",
          "blockNumber": "0x681e102",
          "transactionHash": "0x827571b63a870b2a4693b70428c82ddec9ecddaf0606f61167b196fed4932466",
          "transactionIndex": "0x3",
          "logIndex": "0x3",
          "removed": false
        }
      ],
      "status": "0x1",
      "logsBloom": "0x00000000000000000000000000000000008000000000000000800000000000000000000000000000000000000000000000000000000000000000000000040000000000000000000000000000000000000001000000000000000000000000000000000000020000000000000000000800000000000000000000000000000000400000000000000000000000000000000000000000000000000000000000000000000000001000000000000000000000100002000000000000000000000000000000000000000000000000000000000000000000000000000000004000000020000000000000000000000000000000000000000000000000000000000000000000",
      "type": "0x2",
      "effectiveGasPrice": "0xb2d05e33"
    },
    {
      "transactionHash": "0xc17b5aa1d015a4b5048781159341d3443f74bf9068f784966c7d19afab630027",
      "transactionIndex": "0x4",
      "blockHash": "0xbe16f4b6d192baff15cca7f859bd6d747539fe8d795328094f023392a92214b5",
      "blockNumber": "0x681e102",
      "from": "0x153D2A196dc8f1F6b9Aa87241864B3e4d4FEc170",
      "to": null,
      "cumulativeGasUsed": "0x422d83",
      "gasUsed": "0x146cac",
      "contractAddress": "0x070E9C3386023748cc30Ac389a14c787BE0278d1",
      "logs": [
        {
          "address": "0x070E9C3386023748cc30Ac389a14c787BE0278d1",
          "topics": [
            "0x8be0079c531659141344cd1fd0a4f28419497f9722a3daafe3b4186f6b6457e0",
            "0x0000000000000000000000000000000000000000000000000000000000000000",
            "0x000000000000000000000000153d2a196dc8f1f6b9aa87241864b3e4d4fec170"
          ],
          "data": "0x",
          "blockHash": "0xbe16f4b6d192baff15cca7f859bd6d747539fe8d795328094f023392a92214b5",
          "blockNumber": "0x681e102",
          "transactionHash": "0xc17b5aa1d015a4b5048781159341d3443f74bf9068f784966c7d19afab630027",
          "transactionIndex": "0x4",
          "logIndex": "0x4",
          "removed": false
        }
      ],
      "status": "0x1",
      "logsBloom": "0x00000000000000000000000000000000008000000000000000800000000000000000000000000000000000000020000000000000000000000000000000040000000000000000000000000000000000000001000000000000000000000000000000000000020000000000000000000800000000000000000000000000000000400000000000000000000000000000000000000000000000000000000000000000000000000000000000000000000000100000008000000000000000000000000000000000000000000000000000000000000000000000000000000000000020000000000000000000000000000010000000000000000000000000000000000000",
      "type": "0x2",
      "effectiveGasPrice": "0xb2d05e33"
    },
    {
      "transactionHash": "0x91de08a9f0b8a04b67bcc3c8a0d11f2666f44dab9ec1d94b7bf1b8e9f500e83b",
      "transactionIndex": "0x5",
      "blockHash": "0xbe16f4b6d192baff15cca7f859bd6d747539fe8d795328094f023392a92214b5",
      "blockNumber": "0x681e102",
      "from": "0x153D2A196dc8f1F6b9Aa87241864B3e4d4FEc170",
      "to": "0x92403851543c49D4b84138eAbb23F3A5da73d7d3",
      "cumulativeGasUsed": "0x4445c4",
      "gasUsed": "0x21841",
      "contractAddress": null,
      "logs": [],
      "status": "0x1",
      "logsBloom": "0x00000000000000000000000000000000000000000000000000000000000000000000000000000000000000000000000000000000000000000000000000000000000000000000000000000000000000000000000000000000000000000000000000000000000000000000000000000000000000000000000000000000000000000000000000000000000000000000000000000000000000000000000000000000000000000000000000000000000000000000000000000000000000000000000000000000000000000000000000000000000000000000000000000000000000000000000000000000000000000000000000000000000000000000000000000000",
      "type": "0x2",
      "effectiveGasPrice": "0xb2d05e33"
    },
    {
      "transactionHash": "0xa935425e3e2b77a29303e06d231968964535bf12c80542b5a452ac8ce7ee3b33",
      "transactionIndex": "0x6",
      "blockHash": "0xbe16f4b6d192baff15cca7f859bd6d747539fe8d795328094f023392a92214b5",
      "blockNumber": "0x681e102",
      "from": "0x153D2A196dc8f1F6b9Aa87241864B3e4d4FEc170",
      "to": "0x92403851543c49D4b84138eAbb23F3A5da73d7d3",
      "cumulativeGasUsed": "0x461b45",
      "gasUsed": "0x1d581",
      "contractAddress": null,
      "logs": [],
      "status": "0x1",
      "logsBloom": "0x00000000000000000000000000000000000000000000000000000000000000000000000000000000000000000000000000000000000000000000000000000000000000000000000000000000000000000000000000000000000000000000000000000000000000000000000000000000000000000000000000000000000000000000000000000000000000000000000000000000000000000000000000000000000000000000000000000000000000000000000000000000000000000000000000000000000000000000000000000000000000000000000000000000000000000000000000000000000000000000000000000000000000000000000000000000",
      "type": "0x2",
      "effectiveGasPrice": "0xb2d05e33"
    },
    {
      "transactionHash": "0x300f90cb705369eb2d302ffde33648cebf51d2a2420b8c3ea1d46f5bd30273be",
      "transactionIndex": "0x7",
      "blockHash": "0xbe16f4b6d192baff15cca7f859bd6d747539fe8d795328094f023392a92214b5",
      "blockNumber": "0x681e102",
      "from": "0x153D2A196dc8f1F6b9Aa87241864B3e4d4FEc170",
      "to": "0x92403851543c49D4b84138eAbb23F3A5da73d7d3",
      "cumulativeGasUsed": "0x482f59",
      "gasUsed": "0x21414",
      "contractAddress": null,
      "logs": [
        {
          "address": "0x662012b468C7A91c00Ce3c49A58CC12c66F1EFd4",
          "topics": [
            "0xcea987ab060db6d99b7d7bb4b569479e86ea1087bedf241e270cadff2d65dc6e"
          ],
          "data": "0x000000000000000000000000153d2a196dc8f1f6b9aa87241864b3e4d4fec170000000000000000000000000000000000000000000000000000000000000000100000000000000000000000000000000000000000000000000000000000000a0b494f4f51d001f39414763c301687a74a238d923b8c2f89162dd568edabce40000000000000000000000000000000000000000000000000000000000000000e00000000000000000000000000000000000000000000000000000000000000016697066733a2f2f74657374696e675f74657374696e67000000000000000000000000000000000000000000000000000000000000000000000000000000000001000000000000000000000000153d2a196dc8f1f6b9aa87241864b3e4d4fec170",
          "blockHash": "0xbe16f4b6d192baff15cca7f859bd6d747539fe8d795328094f023392a92214b5",
          "blockNumber": "0x681e102",
          "transactionHash": "0x300f90cb705369eb2d302ffde33648cebf51d2a2420b8c3ea1d46f5bd30273be",
          "transactionIndex": "0x7",
          "logIndex": "0x5",
          "removed": false
        }
      ],
      "status": "0x1",
      "logsBloom": "0x00000000000000000000000000000000000000000000000000000000000000000000000000000000000000000000000000000000000000000000000000000000000000000000000000000000000000000000040000000000000000000000000000000000000000000000000000000000000000000000000000000000000000000000000000000000000000000000000000001000000000000000000000000000000000001000000000000000000000000002000000000000000000000000000000000000000000000000000000000000000040000000000000004000000000000000000000000000000000000000000000000000000000000000000000000000",
      "type": "0x2",
      "effectiveGasPrice": "0xb2d05e33"
    },
    {
      "transactionHash": "0x161794f92cc4cadcf794cf2fefd5632b5f6d9b16329da065b775d3a7e9d89a2a",
      "transactionIndex": "0x8",
      "blockHash": "0xbe16f4b6d192baff15cca7f859bd6d747539fe8d795328094f023392a92214b5",
      "blockNumber": "0x681e102",
      "from": "0x153D2A196dc8f1F6b9Aa87241864B3e4d4FEc170",
      "to": "0x92403851543c49D4b84138eAbb23F3A5da73d7d3",
      "cumulativeGasUsed": "0x4a4379",
      "gasUsed": "0x21420",
      "contractAddress": null,
      "logs": [
        {
          "address": "0x070E9C3386023748cc30Ac389a14c787BE0278d1",
          "topics": [
            "0xcea987ab060db6d99b7d7bb4b569479e86ea1087bedf241e270cadff2d65dc6e"
          ],
          "data": "0x000000000000000000000000153d2a196dc8f1f6b9aa87241864b3e4d4fec170000000000000000000000000000000000000000000000000000000000000000100000000000000000000000000000000000000000000000000000000000000a0b494f4f51d001f39414763c301687a74a238d923b8c2f89162dd568edabce40000000000000000000000000000000000000000000000000000000000000000e00000000000000000000000000000000000000000000000000000000000000016697066733a2f2f74657374696e675f74657374696e67000000000000000000000000000000000000000000000000000000000000000000000000000000000001000000000000000000000000153d2a196dc8f1f6b9aa87241864b3e4d4fec170",
          "blockHash": "0xbe16f4b6d192baff15cca7f859bd6d747539fe8d795328094f023392a92214b5",
          "blockNumber": "0x681e102",
          "transactionHash": "0x161794f92cc4cadcf794cf2fefd5632b5f6d9b16329da065b775d3a7e9d89a2a",
          "transactionIndex": "0x8",
          "logIndex": "0x6",
          "removed": false
        }
      ],
      "status": "0x1",
      "logsBloom": "0x00000000000000000000000000000000000000000000000000000000000000000000000000000000000000000020000000000000000000000000000000000000000000000000000000000000000000000000040000000000000000000000000000000000000000000000000000000000000000000000000000000000000000000000000000000000000000000000000000001000000000000000000000000000000000000000000000000000000000000000008000000000000000000000000000000000000000000000000000000000000040000000000000000000000000000000000000000000000000000010000000000000000000000000000000000000",
      "type": "0x2",
      "effectiveGasPrice": "0xb2d05e33"
    },
    {
      "transactionHash": "0x2f31af7eae460967ed38b2463e0993be64850f478981fbd81740b9004e31fe6b",
      "transactionIndex": "0x9",
      "blockHash": "0xbe16f4b6d192baff15cca7f859bd6d747539fe8d795328094f023392a92214b5",
      "blockNumber": "0x681e102",
      "from": "0x153D2A196dc8f1F6b9Aa87241864B3e4d4FEc170",
      "to": "0x92403851543c49D4b84138eAbb23F3A5da73d7d3",
      "cumulativeGasUsed": "0x4bb281",
      "gasUsed": "0x16f08",
      "contractAddress": null,
      "logs": [
        {
          "address": "0x662012b468C7A91c00Ce3c49A58CC12c66F1EFd4",
          "topics": [
            "0x235dc8a8528b17d169fba77337a73b46016e194b44d81931083430f8b3335986"
          ],
          "data": "0x000000000000000000000000153d2a196dc8f1f6b9aa87241864b3e4d4fec1700000000000000000000000000000000000000000000000000000000000000001000000000000000000000000000000000000000000000000000000000000000200000000000000000000000000000000000000000000000000000000000000800000000000000000000000000000000000000000000000000000000000000001000000000000000000000000000000000000000000000000000000000076adf1000000000000000000000000000000000000000000000000000000000000001100000000000000000000000000000000000000000000000000000000077777770000000000000000000000000000000000000000000000000000000000000001",
          "blockHash": "0xbe16f4b6d192baff15cca7f859bd6d747539fe8d795328094f023392a92214b5",
          "blockNumber": "0x681e102",
          "transactionHash": "0x2f31af7eae460967ed38b2463e0993be64850f478981fbd81740b9004e31fe6b",
          "transactionIndex": "0x9",
          "logIndex": "0x7",
          "removed": false
        }
      ],
      "status": "0x1",
      "logsBloom": "0x00000000000000000000000000000000000000000000000000000000000000000000000000000000000000000000000000000000000000000000000000000000000000000000000000000000000000000000000000000000000000000000000000000000000000000000000000000000000000000000000000000000000000000000000001000000000000000000000000000000000000000000000000000000000000001000000000000000000000000002400000000000000000000000000000000080000000000000000000000000000000000000000000004000000000000000000000000000000000000000000000000000000000000000000000000000",
      "type": "0x2",
      "effectiveGasPrice": "0xb2d05e33"
    },
    {
      "transactionHash": "0xff6c421b24eb626fff1a3578beb1414f936216e149bd3b3fffdb382fae8661f2",
      "transactionIndex": "0xa",
      "blockHash": "0xbe16f4b6d192baff15cca7f859bd6d747539fe8d795328094f023392a92214b5",
      "blockNumber": "0x681e102",
      "from": "0x153D2A196dc8f1F6b9Aa87241864B3e4d4FEc170",
      "to": "0x92403851543c49D4b84138eAbb23F3A5da73d7d3",
      "cumulativeGasUsed": "0x4d7479",
      "gasUsed": "0x1c1f8",
      "contractAddress": null,
      "logs": [
        {
          "address": "0x662012b468C7A91c00Ce3c49A58CC12c66F1EFd4",
          "topics": [
            "0x235dc8a8528b17d169fba77337a73b46016e194b44d81931083430f8b3335986"
          ],
          "data": "0x000000000000000000000000153d2a196dc8f1f6b9aa87241864b3e4d4fec1700000000000000000000000000000000000000000000000000000000000000001000000000000000000000000000000000000000000000000000000000000000300000000000000000000000000000000000000000000000000000000000000800000000000000000000000000000000000000000000000000000000000000001000000000000000000000000000000000000000000000000000000000076adf1000000000000000000000000000000000000000000000000000000000000001100000000000000000000000000000000000000000000000000000000077777770000000000000000000000000000000000000000000000000000000000000001",
          "blockHash": "0xbe16f4b6d192baff15cca7f859bd6d747539fe8d795328094f023392a92214b5",
          "blockNumber": "0x681e102",
          "transactionHash": "0xff6c421b24eb626fff1a3578beb1414f936216e149bd3b3fffdb382fae8661f2",
          "transactionIndex": "0xa",
          "logIndex": "0x8",
          "removed": false
        },
        {
          "address": "0x070E9C3386023748cc30Ac389a14c787BE0278d1",
          "topics": [
            "0x235dc8a8528b17d169fba77337a73b46016e194b44d81931083430f8b3335986"
          ],
          "data": "0x000000000000000000000000153d2a196dc8f1f6b9aa87241864b3e4d4fec1700000000000000000000000000000000000000000000000000000000000000001000000000000000000000000000000000000000000000000000000000000000200000000000000000000000000000000000000000000000000000000000000800000000000000000000000000000000000000000000000000000000000000001000000000000000000000000000000000000000000000000000000000076adf1000000000000000000000000000000000000000000000000000000000000001100000000000000000000000000000000000000000000000000000000077777770000000000000000000000000000000000000000000000000000000000000001",
          "blockHash": "0xbe16f4b6d192baff15cca7f859bd6d747539fe8d795328094f023392a92214b5",
          "blockNumber": "0x681e102",
          "transactionHash": "0xff6c421b24eb626fff1a3578beb1414f936216e149bd3b3fffdb382fae8661f2",
          "transactionIndex": "0xa",
          "logIndex": "0x9",
          "removed": false
        }
      ],
      "status": "0x1",
      "logsBloom": "0x00000000000000000000000000000000000000000000000000000000000000000000000000000000000000000020000000000000000000000000000000000000000000000000000000000000000000000000000000000000000000000000000000000000000000000000000000000000000000000000000000000000000000000000000001000000000000000000000000000000000000000000000000000000000000001000000000000000000000000002408000000000000000000000000000000080000000000000000000000000000000000000000000004000000000000000000000000000000000000010000000000000000000000000000000000000",
      "type": "0x2",
      "effectiveGasPrice": "0xb2d05e33"
    }
  ],
  "libraries": [],
  "pending": [],
  "returns": {},
  "timestamp": 1693948866,
  "chain": 10,
  "multi": false,
  "commit": "66e35d0"
}